{
  "_format": "hh-sol-artifact-1",
  "contractName": "YellowBondingCurveAdapter",
  "sourceName": "contracts/YellowBondingCurveAdapter.sol",
  "abi": [
    {
      "inputs": [
        {
          "internalType": "address",
          "name": "initialOwner",
          "type": "address"
        },
        {
          "internalType": "address",
          "name": "_bondingCurve",
          "type": "address"
        },
        {
          "internalType": "address",
          "name": "_factory",
          "type": "address"
        },
        {
          "internalType": "address",
          "name": "_yellowRelayer",
          "type": "address"
        }
      ],
      "stateMutability": "nonpayable",
      "type": "constructor"
    },
    {
      "inputs": [],
      "name": "GraduatedToken",
      "type": "error"
    },
    {
      "inputs": [],
      "name": "InsufficientFunds",
      "type": "error"
    },
    {
      "inputs": [],
      "name": "InvalidAddress",
      "type": "error"
    },
    {
      "inputs": [],
      "name": "InvalidAmount",
      "type": "error"
    },
    {
      "inputs": [],
      "name": "InvalidNonce",
      "type": "error"
    },
    {
      "inputs": [],
      "name": "NoActiveSession",
      "type": "error"
    },
    {
      "inputs": [
        {
          "internalType": "address",
          "name": "owner",
          "type": "address"
        }
      ],
      "name": "OwnableInvalidOwner",
      "type": "error"
    },
    {
      "inputs": [
        {
          "internalType": "address",
          "name": "account",
          "type": "address"
        }
      ],
      "name": "OwnableUnauthorizedAccount",
      "type": "error"
    },
    {
      "inputs": [],
      "name": "ReentrancyGuardReentrantCall",
      "type": "error"
    },
    {
      "inputs": [
        {
          "internalType": "address",
          "name": "token",
          "type": "address"
        }
      ],
      "name": "SafeERC20FailedOperation",
      "type": "error"
    },
    {
      "inputs": [],
      "name": "SessionActive",
      "type": "error"
    },
    {
      "inputs": [],
      "name": "SessionExpired",
      "type": "error"
    },
    {
      "inputs": [],
      "name": "UnauthorizedRelayer",
      "type": "error"
    },
    {
      "anonymous": false,
      "inputs": [
        {
          "indexed": true,
          "internalType": "address",
          "name": "user",
          "type": "address"
        },
        {
          "indexed": true,
          "internalType": "address",
          "name": "shareToken",
          "type": "address"
        },
        {
          "indexed": false,
          "internalType": "uint256",
          "name": "amount",
          "type": "uint256"
        },
        {
          "indexed": false,
          "internalType": "uint256",
          "name": "costBasis",
          "type": "uint256"
        },
        {
          "indexed": false,
          "internalType": "uint256",
          "name": "nonce",
          "type": "uint256"
        }
      ],
      "name": "OffChainPurchaseRecorded",
      "type": "event"
    },
    {
      "anonymous": false,
      "inputs": [
        {
          "indexed": true,
          "internalType": "address",
          "name": "previousOwner",
          "type": "address"
        },
        {
          "indexed": true,
          "internalType": "address",
          "name": "newOwner",
          "type": "address"
        }
      ],
      "name": "OwnershipTransferred",
      "type": "event"
    },
    {
      "anonymous": false,
      "inputs": [
        {
          "indexed": true,
          "internalType": "address",
          "name": "oldRelayer",
          "type": "address"
        },
        {
          "indexed": true,
          "internalType": "address",
          "name": "newRelayer",
          "type": "address"
        }
      ],
      "name": "RelayerUpdated",
      "type": "event"
    },
    {
      "anonymous": false,
      "inputs": [
        {
          "indexed": true,
          "internalType": "address",
          "name": "user",
          "type": "address"
        },
        {
          "indexed": true,
          "internalType": "address",
          "name": "shareToken",
          "type": "address"
        },
        {
          "indexed": false,
          "internalType": "uint256",
          "name": "refunded",
          "type": "uint256"
        }
      ],
      "name": "SessionCancelled",
      "type": "event"
    },
    {
      "anonymous": false,
      "inputs": [
        {
          "indexed": true,
          "internalType": "address",
          "name": "user",
          "type": "address"
        },
        {
          "indexed": true,
          "internalType": "address",
          "name": "shareToken",
          "type": "address"
        },
        {
          "indexed": false,
          "internalType": "uint256",
          "name": "amount",
          "type": "uint256"
        },
        {
          "indexed": false,
          "internalType": "uint256",
          "name": "expiry",
          "type": "uint256"
        }
      ],
      "name": "SessionOpened",
      "type": "event"
    },
    {
      "anonymous": false,
      "inputs": [
        {
          "indexed": true,
          "internalType": "address",
          "name": "user",
          "type": "address"
        },
        {
          "indexed": true,
          "internalType": "address",
          "name": "shareToken",
          "type": "address"
        },
        {
          "indexed": false,
          "internalType": "uint256",
          "name": "spent",
          "type": "uint256"
        },
        {
          "indexed": false,
          "internalType": "uint256",
          "name": "refund",
          "type": "uint256"
        },
        {
          "indexed": false,
          "internalType": "uint256",
          "name": "sharesPurchased",
          "type": "uint256"
        }
      ],
      "name": "SessionSettled",
      "type": "event"
    },
    {
      "inputs": [],
      "name": "MIN_SESSION_AMOUNT",
      "outputs": [
        {
          "internalType": "uint256",
          "name": "",
          "type": "uint256"
        }
      ],
      "stateMutability": "view",
      "type": "function"
    },
    {
      "inputs": [],
      "name": "SESSION_DURATION",
      "outputs": [
        {
          "internalType": "uint256",
          "name": "",
          "type": "uint256"
        }
      ],
      "stateMutability": "view",
      "type": "function"
    },
    {
      "inputs": [],
      "name": "SETTLEMENT_GRACE_PERIOD",
      "outputs": [
        {
          "internalType": "uint256",
          "name": "",
          "type": "uint256"
        }
      ],
      "stateMutability": "view",
      "type": "function"
    },
    {
      "inputs": [],
      "name": "bondingCurve",
      "outputs": [
        {
          "internalType": "contract IBondingCurve",
          "name": "",
          "type": "address"
        }
      ],
      "stateMutability": "view",
      "type": "function"
    },
    {
      "inputs": [
        {
          "internalType": "address",
          "name": "shareToken",
          "type": "address"
        }
      ],
      "name": "cancelSession",
      "outputs": [],
      "stateMutability": "nonpayable",
      "type": "function"
    },
    {
      "inputs": [],
      "name": "factory",
      "outputs": [
        {
          "internalType": "contract IHorseSharesFactory",
          "name": "",
          "type": "address"
        }
      ],
      "stateMutability": "view",
      "type": "function"
    },
    {
      "inputs": [
        {
          "internalType": "address",
          "name": "user",
          "type": "address"
        },
        {
          "internalType": "address",
          "name": "shareToken",
          "type": "address"
        }
      ],
      "name": "getOffChainPurchase",
      "outputs": [
        {
          "components": [
            {
              "internalType": "uint256",
              "name": "amount",
              "type": "uint256"
            },
            {
              "internalType": "uint256",
              "name": "costBasis",
              "type": "uint256"
            },
            {
              "internalType": "uint256",
              "name": "nonce",
              "type": "uint256"
            }
          ],
          "internalType": "struct YellowBondingCurveAdapter.OffChainPurchase",
          "name": "",
          "type": "tuple"
        }
      ],
      "stateMutability": "view",
      "type": "function"
    },
    {
      "inputs": [
        {
          "internalType": "address",
          "name": "user",
          "type": "address"
        },
        {
          "internalType": "address",
          "name": "shareToken",
          "type": "address"
        }
      ],
      "name": "getSession",
      "outputs": [
        {
          "components": [
            {
              "internalType": "address",
              "name": "user",
              "type": "address"
            },
            {
              "internalType": "uint256",
              "name": "lockedAmount",
              "type": "uint256"
            },
            {
              "internalType": "uint256",
              "name": "expiry",
              "type": "uint256"
            },
            {
              "internalType": "bool",
              "name": "active",
              "type": "bool"
            }
          ],
          "internalType": "struct YellowBondingCurveAdapter.TradingSession",
          "name": "",
          "type": "tuple"
        }
      ],
      "stateMutability": "view",
      "type": "function"
    },
    {
      "inputs": [
        {
          "internalType": "address",
          "name": "user",
          "type": "address"
        },
        {
          "internalType": "address",
          "name": "shareToken",
          "type": "address"
        }
      ],
      "name": "isSessionExpired",
      "outputs": [
        {
          "internalType": "bool",
          "name": "",
          "type": "bool"
        }
      ],
      "stateMutability": "view",
      "type": "function"
    },
    {
      "inputs": [
        {
          "internalType": "address",
          "name": "",
          "type": "address"
        },
        {
          "internalType": "address",
          "name": "",
          "type": "address"
        }
      ],
      "name": "offChainBalances",
      "outputs": [
        {
          "internalType": "uint256",
          "name": "amount",
          "type": "uint256"
        },
        {
          "internalType": "uint256",
          "name": "costBasis",
          "type": "uint256"
        },
        {
          "internalType": "uint256",
          "name": "nonce",
          "type": "uint256"
        }
      ],
      "stateMutability": "view",
      "type": "function"
    },
    {
      "inputs": [
        {
          "internalType": "address",
          "name": "shareToken",
          "type": "address"
        },
        {
          "internalType": "address",
          "name": "paymentToken",
          "type": "address"
        },
        {
          "internalType": "uint256",
          "name": "amount",
          "type": "uint256"
        }
      ],
      "name": "openSession",
      "outputs": [],
      "stateMutability": "payable",
      "type": "function"
    },
    {
      "inputs": [],
      "name": "owner",
      "outputs": [
        {
          "internalType": "address",
          "name": "",
          "type": "address"
        }
      ],
      "stateMutability": "view",
      "type": "function"
    },
    {
      "inputs": [
        {
          "internalType": "address",
          "name": "user",
          "type": "address"
        },
        {
          "internalType": "address",
          "name": "shareToken",
          "type": "address"
        },
        {
          "internalType": "uint256",
          "name": "amount",
          "type": "uint256"
        },
        {
          "internalType": "uint256",
          "name": "costBasis",
          "type": "uint256"
        },
        {
          "internalType": "uint256",
          "name": "nonce",
          "type": "uint256"
        }
      ],
      "name": "recordOffChainPurchase",
      "outputs": [],
      "stateMutability": "nonpayable",
      "type": "function"
    },
    {
      "inputs": [],
      "name": "renounceOwnership",
      "outputs": [],
      "stateMutability": "nonpayable",
      "type": "function"
    },
    {
      "inputs": [
        {
          "internalType": "address",
          "name": "",
          "type": "address"
        },
        {
          "internalType": "address",
          "name": "",
          "type": "address"
        }
      ],
      "name": "sessionNonce",
      "outputs": [
        {
          "internalType": "uint256",
          "name": "",
          "type": "uint256"
        }
      ],
      "stateMutability": "view",
      "type": "function"
    },
    {
      "inputs": [
        {
          "internalType": "address",
          "name": "",
          "type": "address"
        },
        {
          "internalType": "address",
          "name": "",
          "type": "address"
        }
      ],
      "name": "sessions",
      "outputs": [
        {
          "internalType": "address",
          "name": "user",
          "type": "address"
        },
        {
          "internalType": "uint256",
          "name": "lockedAmount",
          "type": "uint256"
        },
        {
          "internalType": "uint256",
          "name": "expiry",
          "type": "uint256"
        },
        {
          "internalType": "bool",
          "name": "active",
          "type": "bool"
        }
      ],
      "stateMutability": "view",
      "type": "function"
    },
    {
      "inputs": [
        {
          "internalType": "address",
          "name": "shareToken",
          "type": "address"
        }
      ],
      "name": "settleSession",
      "outputs": [],
      "stateMutability": "nonpayable",
      "type": "function"
    },
    {
      "inputs": [
        {
          "internalType": "address",
          "name": "newOwner",
          "type": "address"
        }
      ],
      "name": "transferOwnership",
      "outputs": [],
      "stateMutability": "nonpayable",
      "type": "function"
    },
    {
      "inputs": [
        {
          "internalType": "address",
          "name": "newRelayer",
          "type": "address"
        }
      ],
      "name": "updateRelayer",
      "outputs": [],
      "stateMutability": "nonpayable",
      "type": "function"
    },
    {
      "inputs": [],
      "name": "yellowRelayer",
      "outputs": [
        {
          "internalType": "address",
          "name": "",
          "type": "address"
        }
      ],
      "stateMutability": "view",
      "type": "function"
    }
  ],
  "bytecode": "0x60c06040523480156200001157600080fd5b506040516200169b3803806200169b833981016040819052620000349162000189565b836001600160a01b0381166200006457604051631e4fbdf760e01b81526000600482015260240160405180910390fd5b6200006f816200011c565b50600180556001600160a01b0383166200009c5760405163e6c4247b60e01b815260040160405180910390fd5b6001600160a01b038216620000c45760405163e6c4247b60e01b815260040160405180910390fd5b6001600160a01b038116620000ec5760405163e6c4247b60e01b815260040160405180910390fd5b6001600160a01b0392831660805290821660a052600280546001600160a01b0319169190921617905550620001e6565b600080546001600160a01b038381166001600160a01b0319831681178455604051919092169283917f8be0079c531659141344cd1fd0a4f28419497f9722a3daafe3b4186f6b6457e09190a35050565b80516001600160a01b03811681146200018457600080fd5b919050565b60008060008060808587031215620001a057600080fd5b620001ab856200016c565b9350620001bb602086016200016c565b9250620001cb604086016200016c565b9150620001db606086016200016c565b905092959194509250565b60805160a05161147a62000221600039600061040b01526000818161051b01528181610636015281816107b00152610a96015261147a6000f3fe60806040526004361061011f5760003560e01c80638da5cb5b116100a0578063c45a015511610064578063c45a0155146103f9578063eaa5999a1461042d578063eff1d50e14610509578063f2fde38b1461053d578063ff2549881461055d57600080fd5b80638da5cb5b146103435780638e4b8aec146103615780638f83ab131461038157806390371638146103a1578063bfae2364146103d957600080fd5b80634ce7e9aa116100e75780634ce7e9aa1461022e5780634df5ce191461025e57806360fd1a2414610296578063662a2bb9146102a9578063715018a61461032e57600080fd5b8063013a74eb1461012457806303bb2b1a1461018b5780630e0959c7146101b457806330558e86146101d65780633deaa34114610218575b600080fd5b34801561013057600080fd5b5061016b61013f366004611292565b600460209081526000928352604080842090915290825290208054600182015460029092015490919083565b604080519384526020840192909252908201526060015b60405180910390f35b34801561019757600080fd5b506101a666038d7ea4c6800081565b604051908152602001610182565b3480156101c057600080fd5b506101d46101cf3660046112c5565b610573565b005b3480156101e257600080fd5b506101f66101f1366004611292565b610989565b6040805182518152602080840151908201529181015190820152606001610182565b34801561022457600080fd5b506101a6610e1081565b34801561023a57600080fd5b5061024e610249366004611292565b610a00565b6040519015158152602001610182565b34801561026a57600080fd5b5060025461027e906001600160a01b031681565b6040516001600160a01b039091168152602001610182565b6101d46102a43660046112e7565b610a48565b3480156102b557600080fd5b506103026102c4366004611292565b6003602081815260009384526040808520909152918352912080546001820154600283015492909301546001600160a01b0390911692919060ff1684565b604080516001600160a01b03909516855260208501939093529183015215156060820152608001610182565b34801561033a57600080fd5b506101d4610c8c565b34801561034f57600080fd5b506000546001600160a01b031661027e565b34801561036d57600080fd5b506101d461037c3660046112c5565b610ca0565b34801561038d57600080fd5b506101d461039c3660046112c5565b610e0e565b3480156103ad57600080fd5b506101a66103bc366004611292565b600560209081526000928352604080842090915290825290205481565b3480156103e557600080fd5b506101d46103f4366004611323565b610e8f565b34801561040557600080fd5b5061027e7f000000000000000000000000000000000000000000000000000000000000000081565b34801561043957600080fd5b506104cb610448366004611292565b604080516080810182526000808252602082018190529181018290526060810191909152506001600160a01b039182166000908152600360208181526040808420948616845293815291839020835160808101855281549095168552600181015492850192909252600282015492840192909252015460ff161515606082015290565b604051610182919081516001600160a01b03168152602080830151908201526040808301519082015260609182015115159181019190915260800190565b34801561051557600080fd5b5061027e7f000000000000000000000000000000000000000000000000000000000000000081565b34801561054957600080fd5b506101d46105583660046112c5565b611085565b34801561056957600080fd5b506101a661038481565b61057b6110c0565b3360009081526003602081815260408084206001600160a01b03861685529091529091209081015460ff166105c357604051637ff88aad60e01b815260040160405180910390fd5b3360009081526004602090815260408083206001600160a01b0386168452909152812080549091036106085760405163162908e360e11b815260040160405180910390fd5b8054604051639e52270b60e01b81526001600160a01b038581166004830152602482019290925260009182917f000000000000000000000000000000000000000000000000000000000000000090911690639e52270b906044016040805180830381865afa15801561067e573d6000803e3d6000fd5b505050506040513d601f19601f820116820180604052508101906106a29190611370565b909250905060006106b382846113aa565b905060006064856001015460696106ca91906113bd565b6106d491906113d4565b9050808211156106f75760405163356680b760e01b815260040160405180910390fd5b600186015482600081831161070d576000610717565b61071782846113f6565b905060008960030160006101000a81548160ff0219169083151502179055506000896001018190555060008860000154905060046000336001600160a01b03166001600160a01b0316815260200190815260200160002060008c6001600160a01b03166001600160a01b0316815260200190815260200160002060008082016000905560018201600090556002820160009055505060007f00000000000000000000000000000000000000000000000000000000000000006001600160a01b0316631b59c62b858e856000894261012c6107f191906113aa565b6040516001600160e01b031960e089901b1681526001600160a01b03958616600482015260248101949094529390911660448301526064820152608481019190915260a40160206040518083038185885af1158015610854573d6000803e3d6000fd5b50505050506040513d601f19601f820116820180604052508101906108799190611409565b905061088f6001600160a01b038d1633836110ea565b821561092457604051600090339085908381818185875af1925050503d80600081146108d7576040519150601f19603f3d011682016040523d82523d6000602084013e6108dc565b606091505b50509050806109225760405162461bcd60e51b815260206004820152600d60248201526c1499599d5b990819985a5b1959609a1b60448201526064015b60405180910390fd5b505b60408051858152602081018590529081018290526001600160a01b038d169033907f154aea814ef1fe83d77a151e00dc08d46de706f3b1af35d7504a67545cb94a379060600160405180910390a3505050505050505050505061098660018055565b50565b6109ad60405180606001604052806000815260200160008152602001600081525090565b506001600160a01b03808316600090815260046020908152604080832093851683529281529082902082516060810184528154815260018201549281019290925260020154918101919091525b92915050565b6001600160a01b03808316600090815260036020818152604080842094861684529390529181209182015490919060ff168015610a405750806002015442115b949350505050565b610a506110c0565b6001600160a01b038316610a775760405163e6c4247b60e01b815260040160405180910390fd5b60405163fa1653bd60e01b81526001600160a01b0384811660048301527f0000000000000000000000000000000000000000000000000000000000000000169063fa1653bd90602401602060405180830381865afa158015610add573d6000803e3d6000fd5b505050506040513d601f19601f82011682018060405250810190610b019190611422565b15610b1f5760405163dc39bccf60e01b815260040160405180910390fd5b66038d7ea4c68000811015610b475760405163162908e360e11b815260040160405180910390fd5b3360009081526003602081815260408084206001600160a01b03881685529091529091209081015460ff1615610b9057604051632ee454d160e21b815260040160405180910390fd5b6001600160a01b038316610bc357813414610bbe5760405163162908e360e11b815260040160405180910390fd5b610bf7565b3415610be25760405163162908e360e11b815260040160405180910390fd5b610bf76001600160a01b038416333085611149565b6000610c05610e10426113aa565b82546001600160a01b03191633908117845560018085018690556002850183905560038501805460ff1916909117905560408051868152602081018490529293506001600160a01b038816927fe08573231667594965a08c2909fd5e5346af00577f65993f5621ff72d1acda45910160405180910390a35050610c8760018055565b505050565b610c94611188565b610c9e60006111b5565b565b610ca86110c0565b3360009081526003602081815260408084206001600160a01b03861685529091529091209081015460ff16610cf057604051637ff88aad60e01b815260040160405180910390fd5b6001818101805460038401805460ff19169055600091829055338083526004602090815260408085206001600160a01b0389168652909152808420848155948501849055600294909401839055925190929083908381818185875af1925050503d8060008114610d7c576040519150601f19603f3d011682016040523d82523d6000602084013e610d81565b606091505b5050905080610dc25760405162461bcd60e51b815260206004820152600d60248201526c1499599d5b990819985a5b1959609a1b6044820152606401610919565b6040518281526001600160a01b0385169033907f830cadffb19984ebecfd50359adc180ba0610f9b552da6889dba33916677d3249060200160405180910390a350505061098660018055565b610e16611188565b6001600160a01b038116610e3d5760405163e6c4247b60e01b815260040160405180910390fd5b600280546001600160a01b038381166001600160a01b0319831681179093556040519116919082907f605ca4e43489fb38b91aa63dd9147cd3847957694b080b9285ec898b34269f0c90600090a35050565b6002546001600160a01b03163314610eba57604051633c20627b60e01b815260040160405180910390fd5b6001600160a01b03808616600090815260036020818152604080842094891684529390529190209081015460ff16610f0557604051637ff88aad60e01b815260040160405180910390fd5b6103848160020154610f1791906113aa565b421115610f3757604051630fe82d2560e11b815260040160405180910390fd5b6001600160a01b03808716600090815260056020908152604080832093891683529290522054828114610f7d57604051633ab3447f60e11b815260040160405180910390fd5b8160010154841115610fa25760405163356680b760e01b815260040160405180910390fd5b6001600160a01b038088166000908152600460209081526040808320938a168352929052908120805490918791839190610fdd9084906113aa565b9250508190555084816001016000828254610ff891906113aa565b90915550506002810184905561100f8260016113aa565b6001600160a01b038981166000818152600560209081526040808320948d16808452948252918290209490945580518a8152938401899052830187905290917fe31194760090342b8a57bee73b0d942d2aef65b1e30887a7497c430ae095b2ae9060600160405180910390a35050505050505050565b61108d611188565b6001600160a01b0381166110b757604051631e4fbdf760e01b815260006004820152602401610919565b610986816111b5565b6002600154036110e357604051633ee5aeb560e01b815260040160405180910390fd5b6002600155565b6040516001600160a01b03838116602483015260448201839052610c8791859182169063a9059cbb906064015b604051602081830303815290604052915060e01b6020820180516001600160e01b038381831617835250505050611205565b6040516001600160a01b0384811660248301528381166044830152606482018390526111829186918216906323b872dd90608401611117565b50505050565b6000546001600160a01b03163314610c9e5760405163118cdaa760e01b8152336004820152602401610919565b600080546001600160a01b038381166001600160a01b0319831681178455604051919092169283917f8be0079c531659141344cd1fd0a4f28419497f9722a3daafe3b4186f6b6457e09190a35050565b600080602060008451602086016000885af180611228576040513d6000823e3d81fd5b50506000513d9150811561124057806001141561124d565b6001600160a01b0384163b155b1561118257604051635274afe760e01b81526001600160a01b0385166004820152602401610919565b80356001600160a01b038116811461128d57600080fd5b919050565b600080604083850312156112a557600080fd5b6112ae83611276565b91506112bc60208401611276565b90509250929050565b6000602082840312156112d757600080fd5b6112e082611276565b9392505050565b6000806000606084860312156112fc57600080fd5b61130584611276565b925061131360208501611276565b9150604084013590509250925092565b600080600080600060a0868803121561133b57600080fd5b61134486611276565b945061135260208701611276565b94979496505050506040830135926060810135926080909101359150565b6000806040838503121561138357600080fd5b505080516020909101519092909150565b634e487b7160e01b600052601160045260246000fd5b808201808211156109fa576109fa611394565b80820281158282048414176109fa576109fa611394565b6000826113f157634e487b7160e01b600052601260045260246000fd5b500490565b818103818111156109fa576109fa611394565b60006020828403121561141b57600080fd5b5051919050565b60006020828403121561143457600080fd5b815180151581146112e057600080fdfea2646970667358221220efcacc50a38a4210be3ea4e390dca78768ddb8340c39248df5032caf7720ef6864736f6c63430008140033",
  "linkReferences": {},
  "deployedLinkReferences": {}
}