{
  "_format": "hh-sol-artifact-1",
  "contractName": "CrossChainVaultDepositor",
  "sourceName": "contracts/CrossChainVaultDepositor.sol",
  "abi": [
    {
      "inputs": [
        {
          "internalType": "address",
          "name": "initialOwner",
          "type": "address"
        },
        {
          "internalType": "address",
          "name": "_bondingCurve",
          "type": "address"
        },
        {
          "internalType": "address",
          "name": "_factory",
          "type": "address"
        },
        {
          "internalType": "address",
          "name": "_lifiDiamond",
          "type": "address"
        },
        {
          "internalType": "address",
          "name": "_usdt",
          "type": "address"
        }
      ],
      "stateMutability": "nonpayable",
      "type": "constructor"
    },
    {
      "inputs": [],
      "name": "GraduatedToken",
      "type": "error"
    },
    {
      "inputs": [],
      "name": "InsufficientShares",
      "type": "error"
    },
    {
      "inputs": [],
      "name": "IntentCompleted",
      "type": "error"
    },
    {
      "inputs": [],
      "name": "IntentExpired",
      "type": "error"
    },
    {
      "inputs": [],
      "name": "IntentNotFound",
      "type": "error"
    },
    {
      "inputs": [],
      "name": "InvalidAddress",
      "type": "error"
    },
    {
      "inputs": [],
      "name": "InvalidAmount",
      "type": "error"
    },
    {
      "inputs": [],
      "name": "InvalidDeadline",
      "type": "error"
    },
    {
      "inputs": [],
      "name": "InvalidHorse",
      "type": "error"
    },
    {
      "inputs": [
        {
          "internalType": "address",
          "name": "owner",
          "type": "address"
        }
      ],
      "name": "OwnableInvalidOwner",
      "type": "error"
    },
    {
      "inputs": [
        {
          "internalType": "address",
          "name": "account",
          "type": "address"
        }
      ],
      "name": "OwnableUnauthorizedAccount",
      "type": "error"
    },
    {
      "inputs": [],
      "name": "ReentrancyGuardReentrantCall",
      "type": "error"
    },
    {
      "inputs": [
        {
          "internalType": "address",
          "name": "token",
          "type": "address"
        }
      ],
      "name": "SafeERC20FailedOperation",
      "type": "error"
    },
    {
      "inputs": [],
      "name": "SlippageTooHigh",
      "type": "error"
    },
    {
      "inputs": [],
      "name": "UnauthorizedCaller",
      "type": "error"
    },
    {
      "anonymous": false,
      "inputs": [
        {
          "indexed": true,
          "internalType": "bytes32",
          "name": "intentId",
          "type": "bytes32"
        },
        {
          "indexed": true,
          "internalType": "address",
          "name": "user",
          "type": "address"
        },
        {
          "indexed": true,
          "internalType": "uint256",
          "name": "horseId",
          "type": "uint256"
        },
        {
          "indexed": false,
          "internalType": "address",
          "name": "shareToken",
          "type": "address"
        },
        {
          "indexed": false,
          "internalType": "uint256",
          "name": "usdtSpent",
          "type": "uint256"
        },
        {
          "indexed": false,
          "internalType": "uint256",
          "name": "sharesReceived",
          "type": "uint256"
        }
      ],
      "name": "CrossChainDepositExecuted",
      "type": "event"
    },
    {
      "anonymous": false,
      "inputs": [
        {
          "indexed": true,
          "internalType": "bytes32",
          "name": "intentId",
          "type": "bytes32"
        },
        {
          "indexed": true,
          "internalType": "address",
          "name": "user",
          "type": "address"
        }
      ],
      "name": "DepositIntentCancelled",
      "type": "event"
    },
    {
      "anonymous": false,
      "inputs": [
        {
          "indexed": true,
          "internalType": "bytes32",
          "name": "intentId",
          "type": "bytes32"
        },
        {
          "indexed": true,
          "internalType": "address",
          "name": "user",
          "type": "address"
        },
        {
          "indexed": true,
          "internalType": "uint256",
          "name": "horseId",
          "type": "uint256"
        },
        {
          "indexed": false,
          "internalType": "uint256",
          "name": "usdtAmount",
          "type": "uint256"
        },
        {
          "indexed": false,
          "internalType": "uint256",
          "name": "minShares",
          "type": "uint256"
        },
        {
          "indexed": false,
          "internalType": "uint256",
          "name": "deadline",
          "type": "uint256"
        }
      ],
      "name": "DepositIntentCreated",
      "type": "event"
    },
    {
      "anonymous": false,
      "inputs": [
        {
          "indexed": true,
          "internalType": "address",
          "name": "previousOwner",
          "type": "address"
        },
        {
          "indexed": true,
          "internalType": "address",
          "name": "newOwner",
          "type": "address"
        }
      ],
      "name": "OwnershipTransferred",
      "type": "event"
    },
    {
      "inputs": [],
      "name": "MAX_DEADLINE",
      "outputs": [
        {
          "internalType": "uint256",
          "name": "",
          "type": "uint256"
        }
      ],
      "stateMutability": "view",
      "type": "function"
    },
    {
      "inputs": [],
      "name": "MIN_DEPOSIT_AMOUNT",
      "outputs": [
        {
          "internalType": "uint256",
          "name": "",
          "type": "uint256"
        }
      ],
      "stateMutability": "view",
      "type": "function"
    },
    {
      "inputs": [],
      "name": "MIN_SLIPPAGE_BPS",
      "outputs": [
        {
          "internalType": "uint256",
          "name": "",
          "type": "uint256"
        }
      ],
      "stateMutability": "view",
      "type": "function"
    },
    {
      "inputs": [],
      "name": "bondingCurve",
      "outputs": [
        {
          "internalType": "contract IBondingCurve",
          "name": "",
          "type": "address"
        }
      ],
      "stateMutability": "view",
      "type": "function"
    },
    {
      "inputs": [
        {
          "internalType": "bytes32",
          "name": "intentId",
          "type": "bytes32"
        }
      ],
      "name": "cancelDepositIntent",
      "outputs": [],
      "stateMutability": "nonpayable",
      "type": "function"
    },
    {
      "inputs": [
        {
          "internalType": "uint256",
          "name": "horseId",
          "type": "uint256"
        },
        {
          "internalType": "uint256",
          "name": "usdtAmount",
          "type": "uint256"
        },
        {
          "internalType": "uint256",
          "name": "minShares",
          "type": "uint256"
        },
        {
          "internalType": "uint256",
          "name": "deadline",
          "type": "uint256"
        }
      ],
      "name": "createDepositIntent",
      "outputs": [
        {
          "internalType": "bytes32",
          "name": "intentId",
          "type": "bytes32"
        }
      ],
      "stateMutability": "nonpayable",
      "type": "function"
    },
    {
      "inputs": [
        {
          "internalType": "bytes32",
          "name": "",
          "type": "bytes32"
        }
      ],
      "name": "depositIntents",
      "outputs": [
        {
          "internalType": "address",
          "name": "user",
          "type": "address"
        },
        {
          "internalType": "uint256",
          "name": "horseId",
          "type": "uint256"
        },
        {
          "internalType": "uint256",
          "name": "usdtAmount",
          "type": "uint256"
        },
        {
          "internalType": "uint256",
          "name": "minShares",
          "type": "uint256"
        },
        {
          "internalType": "uint256",
          "name": "deadline",
          "type": "uint256"
        },
        {
          "internalType": "bool",
          "name": "completed",
          "type": "bool"
        }
      ],
      "stateMutability": "view",
      "type": "function"
    },
    {
      "inputs": [
        {
          "internalType": "address",
          "name": "to",
          "type": "address"
        },
        {
          "internalType": "uint256",
          "name": "amount",
          "type": "uint256"
        }
      ],
      "name": "emergencyWithdraw",
      "outputs": [],
      "stateMutability": "nonpayable",
      "type": "function"
    },
    {
      "inputs": [
        {
          "internalType": "uint256",
          "name": "horseId",
          "type": "uint256"
        },
        {
          "internalType": "uint256",
          "name": "usdtAmount",
          "type": "uint256"
        }
      ],
      "name": "estimateShares",
      "outputs": [
        {
          "internalType": "uint256",
          "name": "shares",
          "type": "uint256"
        }
      ],
      "stateMutability": "view",
      "type": "function"
    },
    {
      "inputs": [
        {
          "internalType": "bytes32",
          "name": "intentId",
          "type": "bytes32"
        }
      ],
      "name": "executeCrossChainDeposit",
      "outputs": [],
      "stateMutability": "nonpayable",
      "type": "function"
    },
    {
      "inputs": [],
      "name": "factory",
      "outputs": [
        {
          "internalType": "contract IHorseSharesFactory",
          "name": "",
          "type": "address"
        }
      ],
      "stateMutability": "view",
      "type": "function"
    },
    {
      "inputs": [
        {
          "internalType": "bytes32",
          "name": "intentId",
          "type": "bytes32"
        }
      ],
      "name": "getDepositIntent",
      "outputs": [
        {
          "components": [
            {
              "internalType": "address",
              "name": "user",
              "type": "address"
            },
            {
              "internalType": "uint256",
              "name": "horseId",
              "type": "uint256"
            },
            {
              "internalType": "uint256",
              "name": "usdtAmount",
              "type": "uint256"
            },
            {
              "internalType": "uint256",
              "name": "minShares",
              "type": "uint256"
            },
            {
              "internalType": "uint256",
              "name": "deadline",
              "type": "uint256"
            },
            {
              "internalType": "bool",
              "name": "completed",
              "type": "bool"
            }
          ],
          "internalType": "struct CrossChainVaultDepositor.DepositIntent",
          "name": "",
          "type": "tuple"
        }
      ],
      "stateMutability": "view",
      "type": "function"
    },
    {
      "inputs": [
        {
          "internalType": "bytes32",
          "name": "intentId",
          "type": "bytes32"
        }
      ],
      "name": "isIntentExpired",
      "outputs": [
        {
          "internalType": "bool",
          "name": "",
          "type": "bool"
        }
      ],
      "stateMutability": "view",
      "type": "function"
    },
    {
      "inputs": [],
      "name": "lifiDiamond",
      "outputs": [
        {
          "internalType": "address",
          "name": "",
          "type": "address"
        }
      ],
      "stateMutability": "view",
      "type": "function"
    },
    {
      "inputs": [],
      "name": "nextIntentId",
      "outputs": [
        {
          "internalType": "uint256",
          "name": "",
          "type": "uint256"
        }
      ],
      "stateMutability": "view",
      "type": "function"
    },
    {
      "inputs": [],
      "name": "owner",
      "outputs": [
        {
          "internalType": "address",
          "name": "",
          "type": "address"
        }
      ],
      "stateMutability": "view",
      "type": "function"
    },
    {
      "inputs": [],
      "name": "renounceOwnership",
      "outputs": [],
      "stateMutability": "nonpayable",
      "type": "function"
    },
    {
      "inputs": [
        {
          "internalType": "address",
          "name": "newOwner",
          "type": "address"
        }
      ],
      "name": "transferOwnership",
      "outputs": [],
      "stateMutability": "nonpayable",
      "type": "function"
    },
    {
      "inputs": [],
      "name": "usdt",
      "outputs": [
        {
          "internalType": "contract IERC20",
          "name": "",
          "type": "address"
        }
      ],
      "stateMutability": "view",
      "type": "function"
    }
  ],
  "bytecode": "0x6101006040523480156200001257600080fd5b50604051620018ca380380620018ca8339810160408190526200003591620001a6565b846001600160a01b0381166200006557604051631e4fbdf760e01b81526000600482015260240160405180910390fd5b620000708162000139565b50600180556001600160a01b0384166200009d5760405163e6c4247b60e01b815260040160405180910390fd5b6001600160a01b038316620000c55760405163e6c4247b60e01b815260040160405180910390fd5b6001600160a01b038216620000ed5760405163e6c4247b60e01b815260040160405180910390fd5b6001600160a01b038116620001155760405163e6c4247b60e01b815260040160405180910390fd5b6001600160a01b0393841660805291831660a052821660c0521660e0525062000216565b600080546001600160a01b038381166001600160a01b0319831681178455604051919092169283917f8be0079c531659141344cd1fd0a4f28419497f9722a3daafe3b4186f6b6457e09190a35050565b80516001600160a01b0381168114620001a157600080fd5b919050565b600080600080600060a08688031215620001bf57600080fd5b620001ca8662000189565b9450620001da6020870162000189565b9350620001ea6040870162000189565b9250620001fa6060870162000189565b91506200020a6080870162000189565b90509295509295909350565b60805160a05160c05160e05161160a620002c0600039600081816101a40152818161064e015281816106ce015281816107ee01528181610bd501528181610c9b01526110630152600081816101500152610446015260008181610333015281816104bc015281816108a401528181610d700152610e1901526000818161035a0152818161058e0152818161067001528181610699015281816109680152610ed4015261160a6000f3fe608060405234801561001057600080fd5b50600436106101215760003560e01c80638da5cb5b116100ad578063bb872f8111610071578063bb872f81146102a3578063c45a01551461032e578063eff1d50e14610355578063f2fde38b1461037c578063f83e09411461038f57600080fd5b80638da5cb5b146102505780638e6eba7f1461026157806395ccea67146102745780639b7b7b1e14610287578063a3d3ffab1461029057600080fd5b80632f48ab7d116100f45780632f48ab7d1461019f57806357427441146101c65780636305a651146101d95780636f0e530f1461023e578063715018a61461024857600080fd5b806319530a82146101265780631ea30fef146101415780632bd16c8f1461014b5780632c14d5c81461018a575b600080fd5b61012e603281565b6040519081526020015b60405180910390f35b61012e620f424081565b6101727f000000000000000000000000000000000000000000000000000000000000000081565b6040516001600160a01b039091168152602001610138565b61019d6101983660046113e2565b6103b2565b005b6101727f000000000000000000000000000000000000000000000000000000000000000081565b61012e6101d43660046113fb565b610881565b6101ec6101e73660046113e2565b610a0d565b604051610138919081516001600160a01b031681526020808301519082015260408083015190820152606080830151908201526080808301519082015260a09182015115159181019190915260c00190565b61012e6201518081565b61019d610ab5565b6000546001600160a01b0316610172565b61019d61026f3660046113e2565b610ac9565b61019d610282366004611432565b610c3e565b61012e60035481565b61012e61029e36600461145e565b610cc6565b6102f56102b13660046113e2565b60026020819052600091825260409091208054600182015492820154600383015460048401546005909401546001600160a01b039093169493919290919060ff1686565b604080516001600160a01b03909716875260208701959095529385019290925260608401526080830152151560a082015260c001610138565b6101727f000000000000000000000000000000000000000000000000000000000000000081565b6101727f000000000000000000000000000000000000000000000000000000000000000081565b61019d61038a366004611490565b6110db565b6103a261039d3660046113e2565b61111b565b6040519015158152602001610138565b6103ba611148565b600081815260026020526040902080546001600160a01b03166103f0576040516361ae648360e01b815260040160405180910390fd5b600581015460ff16156104165760405163996b4c9f60e01b815260040160405180910390fd5b806004015442111561043b57604051631022c88d60e21b815260040160405180910390fd5b336001600160a01b037f0000000000000000000000000000000000000000000000000000000000000000161480159061047f57506000546001600160a01b03163314155b1561049d57604051635c427cd960e01b815260040160405180910390fd5b60018101546040516301ab3b9360e71b81526000916001600160a01b037f0000000000000000000000000000000000000000000000000000000000000000169163d59dc980916104f39160040190815260200190565b6040805180830381865afa15801561050f573d6000803e3d6000fd5b505050506040513d601f19601f8201168201806040525081019061053391906114ad565b5090506001600160a01b03811661055d576040516324f187ab60e11b815260040160405180910390fd5b6003820154604051639e52270b60e01b81526001600160a01b038381166004830152602482019290925260009182917f000000000000000000000000000000000000000000000000000000000000000090911690639e52270b906044016040805180830381865afa1580156105d6573d6000803e3d6000fd5b505050506040513d601f19601f820116820180604052508101906105fa91906114e7565b9092509050600061060b8284611521565b9050846002015481111561063257604051633999656760e01b815260040160405180910390fd5b60058501805460ff191660011790556106956001600160a01b037f0000000000000000000000000000000000000000000000000000000000000000167f000000000000000000000000000000000000000000000000000000000000000083611172565b60007f00000000000000000000000000000000000000000000000000000000000000006001600160a01b0316631b59c62b8688600301547f0000000000000000000000000000000000000000000000000000000000000000864261012c6106fc9190611521565b6040516001600160e01b031960e088901b1681526001600160a01b03958616600482015260248101949094529390911660448301526064820152608481019190915260a4016020604051808303816000875af1158015610760573d6000803e3d6000fd5b505050506040513d601f19601f820116820180604052508101906107849190611534565b905085600301548110156107ab57604051633999656760e01b815260040160405180910390fd5b85546107c4906001600160a01b03878116911683611236565b60008287600201546107d6919061154d565b90508015610817578654610817906001600160a01b037f00000000000000000000000000000000000000000000000000000000000000008116911683611236565b60018701548754604080516001600160a01b038a81168252602082018890529181018690529116908a907f3c604a74a02e7fb8d7da66f25c40fc1d907a2f742e170244821fe8a6eef2f0479060600160405180910390a45050505050505061087e60018055565b50565b6040516301ab3b9360e71b81526004810183905260009081906001600160a01b037f0000000000000000000000000000000000000000000000000000000000000000169063d59dc980906024016040805180830381865afa1580156108ea573d6000803e3d6000fd5b505050506040513d601f19601f8201168201806040525081019061090e91906114ad565b5090506001600160a01b038116610929576000915050610a07565b600061093a8464e8d4a51000611560565b604051639e52270b60e01b81526001600160a01b0384811660048301526024820183905291925060009182917f000000000000000000000000000000000000000000000000000000000000000090911690639e52270b906044016040805180830381865afa1580156109b0573d6000803e3d6000fd5b505050506040513d601f19601f820116820180604052508101906109d491906114e7565b9092509050856109e48284611521565b1115610a00576109f5600284611577565b945050505050610a07565b5090925050505b92915050565b610a516040518060c0016040528060006001600160a01b03168152602001600081526020016000815260200160008152602001600081526020016000151581525090565b50600090815260026020818152604092839020835160c08101855281546001600160a01b03168152600182015492810192909252918201549281019290925260038101546060830152600481015460808301526005015460ff16151560a082015290565b610abd61126c565b610ac76000611299565b565b610ad1611148565b600081815260026020526040902080546001600160a01b0316610b07576040516361ae648360e01b815260040160405180910390fd5b600581015460ff1615610b2d5760405163996b4c9f60e01b815260040160405180910390fd5b80546001600160a01b03163314801590610b5257506000546001600160a01b03163314155b15610b7057604051635c427cd960e01b815260040160405180910390fd5b6000546001600160a01b03163314801590610b8f575080600401544211155b15610bad57604051631da7447960e21b815260040160405180910390fd5b6002810154815460058301805460ff191660011790556001600160a01b0390811690610bfc907f0000000000000000000000000000000000000000000000000000000000000000168284611236565b6040516001600160a01b0382169085907fcd5ae5d6bd7bc7850b61212243fc2b3002adfee6e4c02648074a03f04313c0cc90600090a350505061087e60018055565b610c4661126c565b6001600160a01b038216610c6d5760405163e6c4247b60e01b815260040160405180910390fd5b80600003610c8e5760405163162908e360e11b815260040160405180910390fd5b610cc26001600160a01b037f0000000000000000000000000000000000000000000000000000000000000000168383611236565b5050565b6000620f4240841015610cec5760405163162908e360e11b815260040160405180910390fd5b82600003610d0d5760405163162908e360e11b815260040160405180910390fd5b428211610d2d57604051631da7447960e21b815260040160405180910390fd5b610d3a6201518042611521565b821115610d5a57604051631da7447960e21b815260040160405180910390fd5b604051630af34d3160e31b8152600481018690527f00000000000000000000000000000000000000000000000000000000000000006001600160a01b03169063579a698890602401602060405180830381865afa158015610dbf573d6000803e3d6000fd5b505050506040513d601f19601f82011682018060405250810190610de39190611599565b610e00576040516324f187ab60e11b815260040160405180910390fd5b6040516301ab3b9360e71b8152600481018690526000907f00000000000000000000000000000000000000000000000000000000000000006001600160a01b03169063d59dc980906024016040805180830381865afa158015610e67573d6000803e3d6000fd5b505050506040513d601f19601f82011682018060405250810190610e8b91906114ad565b5090506001600160a01b038116610eb5576040516324f187ab60e11b815260040160405180910390fd5b60405163fa1653bd60e01b81526001600160a01b0382811660048301527f0000000000000000000000000000000000000000000000000000000000000000169063fa1653bd90602401602060405180830381865afa158015610f1b573d6000803e3d6000fd5b505050506040513d601f19601f82011682018060405250810190610f3f9190611599565b15610f5d5760405163dc39bccf60e01b815260040160405180910390fd5b338686868660036000815480929190610f75906115bb565b9091555060405160609690961b6bffffffffffffffffffffffff19166020870152603486019490945260548501929092526074840152609483015260b482015260d40160408051808303601f19018152828252805160209182012060c084018352338085528285018b81528585018b8152606087018b8152608088018b8152600060a08a01818152878252600298899052989020985189546001600160a01b0319166001600160a01b03918216178a55935160018a0155915195880195909555935160038701559251600486015592516005909401805460ff19169415159490941790935591935061108b917f0000000000000000000000000000000000000000000000000000000000000000169030886112e9565b60408051868152602081018690529081018490528690339084907f975ef2b02390c6db5194e78a3d69b23f1c9f7b15d6d9c8423c3004b4f113df829060600160405180910390a450949350505050565b6110e361126c565b6001600160a01b03811661111257604051631e4fbdf760e01b8152600060048201526024015b60405180910390fd5b61087e81611299565b6000818152600260205260408120600581015460ff161580156111415750806004015442115b9392505050565b60026001540361116b57604051633ee5aeb560e01b815260040160405180910390fd5b6002600155565b604080516001600160a01b038416602482015260448082018490528251808303909101815260649091019091526020810180516001600160e01b031663095ea7b360e01b1790526111c38482611322565b611230576040516001600160a01b0384811660248301526000604483015261122691869182169063095ea7b3906064015b604051602081830303815290604052915060e01b6020820180516001600160e01b038381831617835250505050611371565b6112308482611371565b50505050565b6040516001600160a01b0383811660248301526044820183905261126791859182169063a9059cbb906064016111f4565b505050565b6000546001600160a01b03163314610ac75760405163118cdaa760e01b8152336004820152602401611109565b600080546001600160a01b038381166001600160a01b0319831681178455604051919092169283917f8be0079c531659141344cd1fd0a4f28419497f9722a3daafe3b4186f6b6457e09190a35050565b6040516001600160a01b0384811660248301528381166044830152606482018390526112309186918216906323b872dd906084016111f4565b6000806000806020600086516020880160008a5af192503d91506000519050828015611367575081156113585780600114611367565b6000866001600160a01b03163b115b9695505050505050565b600080602060008451602086016000885af180611394576040513d6000823e3d81fd5b50506000513d915081156113ac5780600114156113b9565b6001600160a01b0384163b155b1561123057604051635274afe760e01b81526001600160a01b0385166004820152602401611109565b6000602082840312156113f457600080fd5b5035919050565b6000806040838503121561140e57600080fd5b50508035926020909101359150565b6001600160a01b038116811461087e57600080fd5b6000806040838503121561144557600080fd5b82356114508161141d565b946020939093013593505050565b6000806000806080858703121561147457600080fd5b5050823594602084013594506040840135936060013592509050565b6000602082840312156114a257600080fd5b81356111418161141d565b600080604083850312156114c057600080fd5b82516114cb8161141d565b60208401519092506114dc8161141d565b809150509250929050565b600080604083850312156114fa57600080fd5b505080516020909101519092909150565b634e487b7160e01b600052601160045260246000fd5b80820180821115610a0757610a0761150b565b60006020828403121561154657600080fd5b5051919050565b81810381811115610a0757610a0761150b565b8082028115828204841417610a0757610a0761150b565b60008261159457634e487b7160e01b600052601260045260246000fd5b500490565b6000602082840312156115ab57600080fd5b8151801515811461114157600080fd5b6000600182016115cd576115cd61150b565b506001019056fea264697066735822122012858f8e5e51d4e29d6f14ab643ebd968b4db066caa2e075479ed6c630588bd064736f6c63430008140033",
  "linkReferences": {},
  "deployedLinkReferences": {}
}