{
  "_format": "hh-sol-artifact-1",
  "contractName": "HorsePortfolioAgent",
  "sourceName": "contracts/HorsePortfolioAgent.sol",
  "abi": [
    {
      "inputs": [
        {
          "internalType": "address",
          "name": "initialOwner",
          "type": "address"
        },
        {
          "internalType": "address",
          "name": "_bondingCurve",
          "type": "address"
        },
        {
          "internalType": "address",
          "name": "_factory",
          "type": "address"
        },
        {
          "internalType": "address",
          "name": "_usdt",
          "type": "address"
        },
        {
          "internalType": "address",
          "name": "_storkOracle",
          "type": "address"
        }
      ],
      "stateMutability": "nonpayable",
      "type": "constructor"
    },
    {
      "inputs": [],
      "name": "GraduatedToken",
      "type": "error"
    },
    {
      "inputs": [],
      "name": "InsufficientFunds",
      "type": "error"
    },
    {
      "inputs": [],
      "name": "InvalidAddress",
      "type": "error"
    },
    {
      "inputs": [],
      "name": "InvalidHorse",
      "type": "error"
    },
    {
      "inputs": [],
      "name": "InvalidScore",
      "type": "error"
    },
    {
      "inputs": [],
      "name": "InvalidStrategy",
      "type": "error"
    },
    {
      "inputs": [],
      "name": "OracleDataStale",
      "type": "error"
    },
    {
      "inputs": [
        {
          "internalType": "address",
          "name": "owner",
          "type": "address"
        }
      ],
      "name": "OwnableInvalidOwner",
      "type": "error"
    },
    {
      "inputs": [
        {
          "internalType": "address",
          "name": "account",
          "type": "address"
        }
      ],
      "name": "OwnableUnauthorizedAccount",
      "type": "error"
    },
    {
      "inputs": [],
      "name": "PortfolioFull",
      "type": "error"
    },
    {
      "inputs": [],
      "name": "PositionTooLarge",
      "type": "error"
    },
    {
      "inputs": [],
      "name": "ReentrancyGuardReentrantCall",
      "type": "error"
    },
    {
      "inputs": [
        {
          "internalType": "address",
          "name": "token",
          "type": "address"
        }
      ],
      "name": "SafeERC20FailedOperation",
      "type": "error"
    },
    {
      "inputs": [],
      "name": "ScoreTooLow",
      "type": "error"
    },
    {
      "inputs": [],
      "name": "StrategyInactive",
      "type": "error"
    },
    {
      "anonymous": false,
      "inputs": [
        {
          "indexed": true,
          "internalType": "uint256",
          "name": "horseId",
          "type": "uint256"
        },
        {
          "indexed": true,
          "internalType": "address",
          "name": "shareToken",
          "type": "address"
        },
        {
          "indexed": false,
          "internalType": "uint256",
          "name": "usdtSpent",
          "type": "uint256"
        },
        {
          "indexed": false,
          "internalType": "uint256",
          "name": "sharesReceived",
          "type": "uint256"
        },
        {
          "indexed": false,
          "internalType": "uint256",
          "name": "oracleScore",
          "type": "uint256"
        }
      ],
      "name": "InvestmentExecuted",
      "type": "event"
    },
    {
      "anonymous": false,
      "inputs": [
        {
          "indexed": true,
          "internalType": "uint256",
          "name": "horseId",
          "type": "uint256"
        },
        {
          "indexed": false,
          "internalType": "uint256",
          "name": "performanceScore",
          "type": "uint256"
        },
        {
          "indexed": false,
          "internalType": "uint256",
          "name": "timestamp",
          "type": "uint256"
        }
      ],
      "name": "OracleDataUpdated",
      "type": "event"
    },
    {
      "anonymous": false,
      "inputs": [
        {
          "indexed": true,
          "internalType": "address",
          "name": "oldOracle",
          "type": "address"
        },
        {
          "indexed": true,
          "internalType": "address",
          "name": "newOracle",
          "type": "address"
        }
      ],
      "name": "OracleUpdated",
      "type": "event"
    },
    {
      "anonymous": false,
      "inputs": [
        {
          "indexed": true,
          "internalType": "address",
          "name": "previousOwner",
          "type": "address"
        },
        {
          "indexed": true,
          "internalType": "address",
          "name": "newOwner",
          "type": "address"
        }
      ],
      "name": "OwnershipTransferred",
      "type": "event"
    },
    {
      "anonymous": false,
      "inputs": [
        {
          "indexed": true,
          "internalType": "uint256",
          "name": "horseId",
          "type": "uint256"
        },
        {
          "indexed": false,
          "internalType": "uint256",
          "name": "oldShares",
          "type": "uint256"
        },
        {
          "indexed": false,
          "internalType": "uint256",
          "name": "newShares",
          "type": "uint256"
        },
        {
          "indexed": false,
          "internalType": "int256",
          "name": "usdtDelta",
          "type": "int256"
        }
      ],
      "name": "PositionRebalanced",
      "type": "event"
    },
    {
      "anonymous": false,
      "inputs": [
        {
          "indexed": false,
          "internalType": "uint256",
          "name": "targetPortfolioSize",
          "type": "uint256"
        },
        {
          "indexed": false,
          "internalType": "uint256",
          "name": "maxPositionSize",
          "type": "uint256"
        },
        {
          "indexed": false,
          "internalType": "uint256",
          "name": "minOracleScore",
          "type": "uint256"
        },
        {
          "indexed": false,
          "internalType": "uint256",
          "name": "rebalanceThreshold",
          "type": "uint256"
        }
      ],
      "name": "StrategyUpdated",
      "type": "event"
    },
    {
      "inputs": [],
      "name": "BPS_DENOMINATOR",
      "outputs": [
        {
          "internalType": "uint256",
          "name": "",
          "type": "uint256"
        }
      ],
      "stateMutability": "view",
      "type": "function"
    },
    {
      "inputs": [],
      "name": "MAX_SCORE",
      "outputs": [
        {
          "internalType": "uint256",
          "name": "",
          "type": "uint256"
        }
      ],
      "stateMutability": "view",
      "type": "function"
    },
    {
      "inputs": [],
      "name": "ORACLE_STALE_THRESHOLD",
      "outputs": [
        {
          "internalType": "uint256",
          "name": "",
          "type": "uint256"
        }
      ],
      "stateMutability": "view",
      "type": "function"
    },
    {
      "inputs": [
        {
          "internalType": "uint256[]",
          "name": "horseIds",
          "type": "uint256[]"
        },
        {
          "internalType": "uint256[]",
          "name": "scores",
          "type": "uint256[]"
        }
      ],
      "name": "batchUpdateOracleData",
      "outputs": [],
      "stateMutability": "nonpayable",
      "type": "function"
    },
    {
      "inputs": [],
      "name": "bondingCurve",
      "outputs": [
        {
          "internalType": "contract IBondingCurve",
          "name": "",
          "type": "address"
        }
      ],
      "stateMutability": "view",
      "type": "function"
    },
    {
      "inputs": [
        {
          "internalType": "address",
          "name": "to",
          "type": "address"
        },
        {
          "internalType": "uint256",
          "name": "amount",
          "type": "uint256"
        }
      ],
      "name": "emergencyWithdraw",
      "outputs": [],
      "stateMutability": "nonpayable",
      "type": "function"
    },
    {
      "inputs": [
        {
          "internalType": "uint256",
          "name": "horseId",
          "type": "uint256"
        },
        {
          "internalType": "uint256",
          "name": "usdtAmount",
          "type": "uint256"
        }
      ],
      "name": "executeInvestment",
      "outputs": [],
      "stateMutability": "nonpayable",
      "type": "function"
    },
    {
      "inputs": [],
      "name": "factory",
      "outputs": [
        {
          "internalType": "contract IHorseSharesFactory",
          "name": "",
          "type": "address"
        }
      ],
      "stateMutability": "view",
      "type": "function"
    },
    {
      "inputs": [],
      "name": "getPortfolioHorses",
      "outputs": [
        {
          "internalType": "uint256[]",
          "name": "",
          "type": "uint256[]"
        }
      ],
      "stateMutability": "view",
      "type": "function"
    },
    {
      "inputs": [],
      "name": "getPortfolioSize",
      "outputs": [
        {
          "internalType": "uint256",
          "name": "",
          "type": "uint256"
        }
      ],
      "stateMutability": "view",
      "type": "function"
    },
    {
      "inputs": [],
      "name": "getPortfolioValue",
      "outputs": [
        {
          "internalType": "uint256",
          "name": "totalShares",
          "type": "uint256"
        },
        {
          "internalType": "uint256",
          "name": "invested",
          "type": "uint256"
        }
      ],
      "stateMutability": "view",
      "type": "function"
    },
    {
      "inputs": [
        {
          "internalType": "uint256",
          "name": "horseId",
          "type": "uint256"
        }
      ],
      "name": "getPosition",
      "outputs": [
        {
          "components": [
            {
              "internalType": "uint256",
              "name": "horseId",
              "type": "uint256"
            },
            {
              "internalType": "address",
              "name": "shareToken",
              "type": "address"
            },
            {
              "internalType": "uint256",
              "name": "shares",
              "type": "uint256"
            },
            {
              "internalType": "uint256",
              "name": "costBasis",
              "type": "uint256"
            },
            {
              "internalType": "uint256",
              "name": "lastUpdate",
              "type": "uint256"
            }
          ],
          "internalType": "struct HorsePortfolioAgent.HorsePosition",
          "name": "",
          "type": "tuple"
        }
      ],
      "stateMutability": "view",
      "type": "function"
    },
    {
      "inputs": [
        {
          "internalType": "uint256",
          "name": "horseId",
          "type": "uint256"
        }
      ],
      "name": "isOracleDataStale",
      "outputs": [
        {
          "internalType": "bool",
          "name": "",
          "type": "bool"
        }
      ],
      "stateMutability": "view",
      "type": "function"
    },
    {
      "inputs": [
        {
          "internalType": "uint256",
          "name": "",
          "type": "uint256"
        }
      ],
      "name": "oracleCache",
      "outputs": [
        {
          "internalType": "uint256",
          "name": "horseId",
          "type": "uint256"
        },
        {
          "internalType": "uint256",
          "name": "performanceScore",
          "type": "uint256"
        },
        {
          "internalType": "uint256",
          "name": "timestamp",
          "type": "uint256"
        },
        {
          "internalType": "bool",
          "name": "isValid",
          "type": "bool"
        }
      ],
      "stateMutability": "view",
      "type": "function"
    },
    {
      "inputs": [],
      "name": "owner",
      "outputs": [
        {
          "internalType": "address",
          "name": "",
          "type": "address"
        }
      ],
      "stateMutability": "view",
      "type": "function"
    },
    {
      "inputs": [
        {
          "internalType": "uint256",
          "name": "",
          "type": "uint256"
        }
      ],
      "name": "portfolioHorses",
      "outputs": [
        {
          "internalType": "uint256",
          "name": "",
          "type": "uint256"
        }
      ],
      "stateMutability": "view",
      "type": "function"
    },
    {
      "inputs": [
        {
          "internalType": "uint256",
          "name": "",
          "type": "uint256"
        }
      ],
      "name": "positions",
      "outputs": [
        {
          "internalType": "uint256",
          "name": "horseId",
          "type": "uint256"
        },
        {
          "internalType": "address",
          "name": "shareToken",
          "type": "address"
        },
        {
          "internalType": "uint256",
          "name": "shares",
          "type": "uint256"
        },
        {
          "internalType": "uint256",
          "name": "costBasis",
          "type": "uint256"
        },
        {
          "internalType": "uint256",
          "name": "lastUpdate",
          "type": "uint256"
        }
      ],
      "stateMutability": "view",
      "type": "function"
    },
    {
      "inputs": [],
      "name": "renounceOwnership",
      "outputs": [],
      "stateMutability": "nonpayable",
      "type": "function"
    },
    {
      "inputs": [
        {
          "internalType": "bool",
          "name": "active",
          "type": "bool"
        }
      ],
      "name": "setStrategyActive",
      "outputs": [],
      "stateMutability": "nonpayable",
      "type": "function"
    },
    {
      "inputs": [],
      "name": "storkOracle",
      "outputs": [
        {
          "internalType": "address",
          "name": "",
          "type": "address"
        }
      ],
      "stateMutability": "view",
      "type": "function"
    },
    {
      "inputs": [],
      "name": "strategy",
      "outputs": [
        {
          "internalType": "uint256",
          "name": "targetPortfolioSize",
          "type": "uint256"
        },
        {
          "internalType": "uint256",
          "name": "maxPositionSize",
          "type": "uint256"
        },
        {
          "internalType": "uint256",
          "name": "minOracleScore",
          "type": "uint256"
        },
        {
          "internalType": "uint256",
          "name": "rebalanceThreshold",
          "type": "uint256"
        },
        {
          "internalType": "bool",
          "name": "isActive",
          "type": "bool"
        }
      ],
      "stateMutability": "view",
      "type": "function"
    },
    {
      "inputs": [],
      "name": "totalInvested",
      "outputs": [
        {
          "internalType": "uint256",
          "name": "",
          "type": "uint256"
        }
      ],
      "stateMutability": "view",
      "type": "function"
    },
    {
      "inputs": [],
      "name": "totalValue",
      "outputs": [
        {
          "internalType": "uint256",
          "name": "",
          "type": "uint256"
        }
      ],
      "stateMutability": "view",
      "type": "function"
    },
    {
      "inputs": [
        {
          "internalType": "address",
          "name": "newOwner",
          "type": "address"
        }
      ],
      "name": "transferOwnership",
      "outputs": [],
      "stateMutability": "nonpayable",
      "type": "function"
    },
    {
      "inputs": [
        {
          "internalType": "address",
          "name": "newOracle",
          "type": "address"
        }
      ],
      "name": "updateOracle",
      "outputs": [],
      "stateMutability": "nonpayable",
      "type": "function"
    },
    {
      "inputs": [
        {
          "internalType": "uint256",
          "name": "horseId",
          "type": "uint256"
        },
        {
          "internalType": "uint256",
          "name": "performanceScore",
          "type": "uint256"
        }
      ],
      "name": "updateOracleData",
      "outputs": [],
      "stateMutability": "nonpayable",
      "type": "function"
    },
    {
      "inputs": [
        {
          "internalType": "uint256",
          "name": "_targetPortfolioSize",
          "type": "uint256"
        },
        {
          "internalType": "uint256",
          "name": "_maxPositionSize",
          "type": "uint256"
        },
        {
          "internalType": "uint256",
          "name": "_minOracleScore",
          "type": "uint256"
        },
        {
          "internalType": "uint256",
          "name": "_rebalanceThreshold",
          "type": "uint256"
        }
      ],
      "name": "updateStrategy",
      "outputs": [],
      "stateMutability": "nonpayable",
      "type": "function"
    },
    {
      "inputs": [],
      "name": "usdt",
      "outputs": [
        {
          "internalType": "contract IERC20",
          "name": "",
          "type": "address"
        }
      ],
      "stateMutability": "view",
      "type": "function"
    }
  ],
  "bytecode": "0x60e06040523480156200001157600080fd5b5060405162001c9238038062001c928339810160408190526200003491620001b6565b846001600160a01b0381166200006457604051631e4fbdf760e01b81526000600482015260240160405180910390fd5b6200006f8162000149565b50600180556001600160a01b0384166200009c5760405163e6c4247b60e01b815260040160405180910390fd5b6001600160a01b038316620000c45760405163e6c4247b60e01b815260040160405180910390fd5b6001600160a01b038216620000ec5760405163e6c4247b60e01b815260040160405180910390fd5b6001600160a01b038116620001145760405163e6c4247b60e01b815260040160405180910390fd5b6001600160a01b0393841660805291831660a052821660c052600280546001600160a01b031916919092161790555062000226565b600080546001600160a01b038381166001600160a01b0319831681178455604051919092169283917f8be0079c531659141344cd1fd0a4f28419497f9722a3daafe3b4186f6b6457e09190a35050565b80516001600160a01b0381168114620001b157600080fd5b919050565b600080600080600060a08688031215620001cf57600080fd5b620001da8662000199565b9450620001ea6020870162000199565b9350620001fa6040870162000199565b92506200020a6060870162000199565b91506200021a6080870162000199565b90509295509295909350565b60805160a05160c0516119ef620002a36000396000818161022901528181610a3101528181610aad0152610ebb01526000818161043a015281816106d901528181610d2b0152610f740152600081816104f401528181610794015281816108980152818161097401528181610a530152610a8401526119ef6000f3fe608060405234801561001057600080fd5b50600436106101c45760003560e01c806399fbab88116100f9578063e1a4521811610097578063eb02c30111610071578063eb02c30114610496578063eff1d50e146104ef578063f2fde38b14610516578063f638463e1461052957600080fd5b8063e1a4521814610465578063e62697a11461046e578063ea70a16e1461048157600080fd5b8063bae9acfe116100d3578063bae9acfe14610405578063bb0498de14610418578063c45a015514610435578063d4c3eea01461045c57600080fd5b806399fbab88146102ed578063a8c62e7614610364578063ab349d58146103ab57600080fd5b80635216aeec11610166578063715018a611610140578063715018a6146102ae578063737f558e146102b65780638da5cb5b146102c957806395ccea67146102da57600080fd5b80635216aeec14610294578063684ce0bc1461029d5780636cee15c8146102a557600080fd5b80632f48ab7d116101a25780632f48ab7d146102245780633422d3001461024b5780633475ae411461025e5780634896fcc21461028157600080fd5b8063053734dc146101c95780631cb44dfc146101f957806327ff62231461020e575b600080fd5b6002546101dc906001600160a01b031681565b6040516001600160a01b0390911681526020015b60405180910390f35b61020c6102073660046116b7565b61053c565b005b610216606481565b6040519081526020016101f0565b6101dc7f000000000000000000000000000000000000000000000000000000000000000081565b61020c6102593660046116d4565b6105bd565b61027161026c3660046116f6565b610c8f565b60405190151581526020016101f0565b61020c61028f3660046116d4565b610cc8565b610216600b5481565b600954610216565b610216610e1081565b61020c610e50565b61020c6102c436600461171d565b610e64565b6000546001600160a01b03166101dc565b61020c6102e836600461173a565b610e7f565b6103346102fb3660046116f6565b6008602052600090815260409020805460018201546002830154600384015460049094015492936001600160a01b039092169290919085565b604080519586526001600160a01b039094166020860152928401919091526060830152608082015260a0016101f0565b600354600454600554600654600754610381949392919060ff1685565b6040805195865260208601949094529284019190915260608301521515608082015260a0016101f0565b6103e36103b93660046116f6565b600a6020526000908152604090208054600182015460028301546003909301549192909160ff1684565b60408051948552602085019390935291830152151560608201526080016101f0565b61020c6104133660046117b2565b610ee2565b610420611160565b604080519283526020830191909152016101f0565b6101dc7f000000000000000000000000000000000000000000000000000000000000000081565b610216600c5481565b61021661271081565b61020c61047c36600461181e565b6111cb565b6104896112f0565b6040516101f09190611850565b6104a96104a43660046116f6565b611348565b6040516101f09190815181526020808301516001600160a01b03169082015260408083015190820152606080830151908201526080918201519181019190915260a00190565b6101dc7f000000000000000000000000000000000000000000000000000000000000000081565b61020c6105243660046116b7565b6113db565b6102166105373660046116f6565b61141e565b61054461143f565b6001600160a01b03811661056b5760405163e6c4247b60e01b815260040160405180910390fd5b600280546001600160a01b038381166001600160a01b0319831681179093556040519116919082907f078c3b417dadf69374a59793b829c52001247130433427049317bde56607b1b790600090a35050565b6105c561146c565b6105cd61143f565b60075460ff166105f057604051630baddc3d60e11b815260040160405180910390fd5b806000036106115760405163356680b760e01b815260040160405180910390fd5b60045481111561063457604051630543a6e160e41b815260040160405180910390fd5b6000828152600a60205260409020600381015460ff1661066757604051630e4e2b8f60e21b815260040160405180910390fd5b610e10816002015461067991906118aa565b42111561069957604051630e4e2b8f60e21b815260040160405180910390fd5b600554600182015410156106c057604051630e94124b60e01b815260040160405180910390fd5b6040516301ab3b9360e71b8152600481018490526000907f00000000000000000000000000000000000000000000000000000000000000006001600160a01b03169063d59dc980906024016040805180830381865afa158015610727573d6000803e3d6000fd5b505050506040513d601f19601f8201168201806040525081019061074b91906118bd565b5090506001600160a01b038116610775576040516324f187ab60e11b815260040160405180910390fd5b60405163fa1653bd60e01b81526001600160a01b0382811660048301527f0000000000000000000000000000000000000000000000000000000000000000169063fa1653bd90602401602060405180830381865afa1580156107db573d6000803e3d6000fd5b505050506040513d601f19601f820116820180604052508101906107ff91906118f7565b1561081d5760405163dc39bccf60e01b815260040160405180910390fd5b6000848152600860205260408120600201549003610859576003546009541061085957604051639af4398960e01b815260040160405180910390fd5b600061086a8464e8d4a51000611914565b604051639e52270b60e01b81526001600160a01b0384811660048301526024820183905291925060009182917f000000000000000000000000000000000000000000000000000000000000000090911690639e52270b906044016040805180830381865afa1580156108e0573d6000803e3d6000fd5b505050506040513d601f19601f82011682018060405250810190610904919061192b565b9092509050600061091582846118aa565b905060005b87821180156109295750601481105b801561093b575066038d7ea4c6800085115b15610a035761094b60028661194f565b604051639e52270b60e01b81526001600160a01b038881166004830152602482018390529196507f000000000000000000000000000000000000000000000000000000000000000090911690639e52270b906044016040805180830381865afa1580156109bc573d6000803e3d6000fd5b505050506040513d601f19601f820116820180604052508101906109e0919061192b565b90945092506109ef83856118aa565b9150806109fb81611971565b91505061091a565b87821115610a245760405163356680b760e01b815260040160405180910390fd5b610a786001600160a01b037f0000000000000000000000000000000000000000000000000000000000000000167f000000000000000000000000000000000000000000000000000000000000000084611496565b60006001600160a01b037f000000000000000000000000000000000000000000000000000000000000000016631b59c62b88887f000000000000000000000000000000000000000000000000000000000000000087610ad94261012c6118aa565b6040516001600160e01b031960e088901b1681526001600160a01b03958616600482015260248101949094529390911660448301526064820152608481019190915260a4016020604051808303816000875af1158015610b3d573d6000803e3d6000fd5b505050506040513d601f19601f82011682018060405250810190610b61919061198a565b60008b81526008602052604081206002810154929350919003610bd35760098054600180820183556000929092527f6e1540171b6c0c960b71a7020d9f60077f6af931a8bbf590da0223dacf75c7af018c90558b8255810180546001600160a01b0319166001600160a01b038a161790555b81816002016000828254610be791906118aa565b9250508190555083816003016000828254610c0291906118aa565b9091555050426004820155600b8054859190600090610c229084906118aa565b90915550506001890154604080518681526020810185905280820192909252516001600160a01b038a16918d917fca091df1cac2c69c13f05e2090a9e1d3c9cac87cee9a21c2f3a48d1770650a799181900360600190a3505050505050505050610c8b60018055565b5050565b6000818152600a60205260408120600381015460ff161580610cc15750610e108160020154610cbe91906118aa565b42115b9392505050565b6002546001600160a01b03163314610cf35760405163e6c4247b60e01b815260040160405180910390fd5b6064811115610d1557604051631556136560e01b815260040160405180910390fd5b604051630af34d3160e31b8152600481018390527f00000000000000000000000000000000000000000000000000000000000000006001600160a01b03169063579a698890602401602060405180830381865afa158015610d7a573d6000803e3d6000fd5b505050506040513d601f19601f82011682018060405250810190610d9e91906118f7565b610dbb576040516324f187ab60e11b815260040160405180910390fd5b6040805160808101825283815260208082018481524283850181815260016060860181815260008a8152600a87528890209651875593519086015551600285015590516003909301805460ff19169315159390931790925582518481529081019190915283917f3b5b9ec10ac526fb6a7ef9d91f148a1290720f472c1d5d0b5f37c7ca7da000ca910160405180910390a25050565b610e5861143f565b610e62600061155a565b565b610e6c61143f565b6007805460ff1916911515919091179055565b610e8761143f565b6001600160a01b038216610eae5760405163e6c4247b60e01b815260040160405180910390fd5b610c8b6001600160a01b037f00000000000000000000000000000000000000000000000000000000000000001683836115aa565b6002546001600160a01b03163314610f0d5760405163e6c4247b60e01b815260040160405180910390fd5b828114610f2d57604051632711b74d60e11b815260040160405180910390fd5b60005b83811015611159576064838383818110610f4c57610f4c6119a3565b905060200201351115610f7257604051631556136560e01b815260040160405180910390fd5b7f00000000000000000000000000000000000000000000000000000000000000006001600160a01b031663579a6988868684818110610fb357610fb36119a3565b905060200201356040518263ffffffff1660e01b8152600401610fd891815260200190565b602060405180830381865afa158015610ff5573d6000803e3d6000fd5b505050506040513d601f19601f8201168201806040525081019061101991906118f7565b1561114757604051806080016040528086868481811061103b5761103b6119a3565b905060200201358152602001848484818110611059576110596119a3565b90506020020135815260200142815260200160011515815250600a6000878785818110611088576110886119a3565b602090810292909201358352508181019290925260409081016000208351815591830151600183015582015160028201556060909101516003909101805460ff19169115159190911790558484828181106110e5576110e56119a3565b905060200201357f3b5b9ec10ac526fb6a7ef9d91f148a1290720f472c1d5d0b5f37c7ca7da000ca84848481811061111f5761111f6119a3565b905060200201354260405161113e929190918252602082015260400190565b60405180910390a25b8061115181611971565b915050610f30565b5050505050565b600080805b6009548110156111c2576008600060098381548110611186576111866119a3565b9060005260206000200154815260200190815260200160002060020154836111ae91906118aa565b9250806111ba81611971565b915050611165565b5050600b549091565b6111d361143f565b836000036111f457604051632711b74d60e11b815260040160405180910390fd5b8260000361121557604051632711b74d60e11b815260040160405180910390fd5b606482111561123757604051632711b74d60e11b815260040160405180910390fd5b61271081111561125a57604051632711b74d60e11b815260040160405180910390fd5b6040805160a081018252858152602080820186905281830185905260608083018590526001608093840181905260038990556004889055600587905560068690556007805460ff1916909117905583518881529182018790529281018590529182018390527f62277028b24da196ace88d7bb1aba101186a78cd58d8b7468e6eb14a19693e45910160405180910390a150505050565b6060600980548060200260200160405190810160405280929190818152602001828054801561133e57602002820191906000526020600020905b81548152602001906001019080831161132a575b5050505050905090565b6113836040518060a001604052806000815260200160006001600160a01b031681526020016000815260200160008152602001600081525090565b50600090815260086020908152604091829020825160a0810184528154815260018201546001600160a01b03169281019290925260028101549282019290925260038201546060820152600490910154608082015290565b6113e361143f565b6001600160a01b03811661141257604051631e4fbdf760e01b8152600060048201526024015b60405180910390fd5b61141b8161155a565b50565b6009818154811061142e57600080fd5b600091825260209091200154905081565b6000546001600160a01b03163314610e625760405163118cdaa760e01b8152336004820152602401611409565b60026001540361148f57604051633ee5aeb560e01b815260040160405180910390fd5b6002600155565b604080516001600160a01b038416602482015260448082018490528251808303909101815260649091019091526020810180516001600160e01b031663095ea7b360e01b1790526114e784826115e0565b611554576040516001600160a01b0384811660248301526000604483015261154a91869182169063095ea7b3906064015b604051602081830303815290604052915060e01b6020820180516001600160e01b038381831617835250505050611631565b6115548482611631565b50505050565b600080546001600160a01b038381166001600160a01b0319831681178455604051919092169283917f8be0079c531659141344cd1fd0a4f28419497f9722a3daafe3b4186f6b6457e09190a35050565b6040516001600160a01b038381166024830152604482018390526115db91859182169063a9059cbb90606401611518565b505050565b6000806000806020600086516020880160008a5af192503d91506000519050828015611625575081156116165780600114611625565b6000866001600160a01b03163b115b93505050505b92915050565b600080602060008451602086016000885af180611654576040513d6000823e3d81fd5b50506000513d9150811561166c578060011415611679565b6001600160a01b0384163b155b1561155457604051635274afe760e01b81526001600160a01b0385166004820152602401611409565b6001600160a01b038116811461141b57600080fd5b6000602082840312156116c957600080fd5b8135610cc1816116a2565b600080604083850312156116e757600080fd5b50508035926020909101359150565b60006020828403121561170857600080fd5b5035919050565b801515811461141b57600080fd5b60006020828403121561172f57600080fd5b8135610cc18161170f565b6000806040838503121561174d57600080fd5b8235611758816116a2565b946020939093013593505050565b60008083601f84011261177857600080fd5b50813567ffffffffffffffff81111561179057600080fd5b6020830191508360208260051b85010111156117ab57600080fd5b9250929050565b600080600080604085870312156117c857600080fd5b843567ffffffffffffffff808211156117e057600080fd5b6117ec88838901611766565b9096509450602087013591508082111561180557600080fd5b5061181287828801611766565b95989497509550505050565b6000806000806080858703121561183457600080fd5b5050823594602084013594506040840135936060013592509050565b6020808252825182820181905260009190848201906040850190845b818110156118885783518352928401929184019160010161186c565b50909695505050505050565b634e487b7160e01b600052601160045260246000fd5b8082018082111561162b5761162b611894565b600080604083850312156118d057600080fd5b82516118db816116a2565b60208401519092506118ec816116a2565b809150509250929050565b60006020828403121561190957600080fd5b8151610cc18161170f565b808202811582820484141761162b5761162b611894565b6000806040838503121561193e57600080fd5b505080516020909101519092909150565b60008261196c57634e487b7160e01b600052601260045260246000fd5b500490565b60006001820161198357611983611894565b5060010190565b60006020828403121561199c57600080fd5b5051919050565b634e487b7160e01b600052603260045260246000fdfea2646970667358221220d407399abfa7190f23a852c70822de864a7774745b6a442cb16d84049371312964736f6c63430008140033",
  "linkReferences": {},
  "deployedLinkReferences": {}
}